:1000000072C000009EC000009CC000009AC00000AA
:1000100098C0000096C0000094C0000092C000008C
:1000200090C000008EC000008CC000008AC000009C
:1000300088C0000086C0000084C0000082C00000AC
:1000400080C000007EC000007CC000007AC00000BC
:1000500078C0000076C0000074C000006CC30000CF
:1000600070C0000032C3000007C300006AC0000077
:1000700068C0000066C0000064C0000062C00000EC
:1000800060C000005EC000005CC000005AC00000FC
:10009000BDC2000092C2000054C0000052C0000067
:1000A00050C000004EC000004CC000004AC000001C
:1000B00048C0000046C0000044C0000042C000002C
:1000C00040C000003EC000003CC000003AC000003C
:1000D00038C0000036C0000034C0000032C000004C
:1000E00030C00000E50311241FBECFEFD1E2DEBF18
:1000F000CDBF00E00CBF12E0A0E0B2E0E8EBFDE015
:1001000000E00BBF02C007900D92AA31B107D9F7EA
:1001100023E0AAE1B2E001C01D92A13BB207E1F7E2
:1001200010E0C3E7D0E000E005C021970109802F6F
:10013000FE0138D6C237D10780E00807B1F7E6D311
:1001400039C65ECFCF93DF93BC0180918503909138
:10015000860320918E032223D1F0EB01DC01ED9187
:10016000FC910280F381E02D38812091AC0342E0C4
:1001700050E06F5F7F4F321719F043E050E0BE014F
:10018000199588818093AC03DF91CF9108951092E7
:10019000AC03DC01ED91FC910280F381E02D43E0A2
:1001A00050E0DF91CF911994AF92BF92CF92DF923E
:1001B000EF92FF920F931F93CF93DF936C017B011C
:1001C0008B01040F151FEB015E01AE18BF08C017AD
:1001D000D10759F06991D601ED91FC910190F08120
:1001E000E02DC6011995892B79F7C501DF91CF91D3
:1001F0001F910F91FF90EF90DF90CF90BF90AF9045
:100200000895FC01538D448D252F30E0842F90E01C
:10021000821B930B541710F0CF9608950197089501
:10022000FC01918D828D981761F0A28DAE0FBF2FCA
:10023000B11D5D968C91928D9F5F9F73928F90E020
:1002400008958FEF9FEF0895FC01918D828D98178F
:1002500031F0828DE80FF11D858D90E008958FEFCC
:100260009FEF0895FC01918D228D892F90E0805C95
:100270009F4F821B91098F739927089580EC92E01C
:10028000F1DF21E0892B09F420E0822F089583E239
:1002900092E0E8DF21E0892B09F420E0822F089525
:1002A000FC01A48DA80FB92FB11DA35ABF4F2C91EB
:1002B000848D90E001968F739927848FA689B789E2
:1002C0002C93A089B1898C91837080648C93938DD9
:1002D000848D981306C00288F389E02D80818F7D7C
:1002E00080830895EF92FF920F931F93CF93DF9334
:1002F000EC0181E0888F9B8D8C8D98131AC0E88962
:10030000F989808185FF15C09FB7F894EE89FF8930
:100310006083E889F98980818370806480839FBFCE
:1003200081E090E0DF91CF911F910F91FF90EF90CE
:100330000895F62E0B8D10E00F5F1F4F0F731127DE
:10034000E02E8C8D8E110BC00FB607FCFACFE8891A
:10035000F989808185FFF5CFCE01A2DFF2CFEB8D49
:10036000EC0FFD2FF11DE35AFF4FF0829FB7F89479
:100370000B8FEA89FB8980818062D0CFCF93DF9396
:10038000EC01888D8823B1F0AA89BB89E889F989B5
:100390008C9185FD03C0808186FD0CC00FB607FCE3
:1003A000F7CF8C9185FFF2CF808185FFEDCFCE0115
:1003B00077DFEACFDF91CF91089580E090E0892B3D
:1003C00021F065DF81110E94000080E090E0892B20
:1003D00021F054DF81110E94000080E090E0892B21
:1003E00049F080E090E0892B29F00E940000811103
:1003F0000E94000080E090E0892B49F080E090E0CE
:10040000892B29F00E94000081110C9400000895AE
:100410003FB7F89480911F0290912002A091210291
:10042000B091220226B5A89B05C02F3F19F0019676
:10043000A11DB11D3FBFBA2FA92F982F8827BC013E
:10044000CD01620F711D811D911D42E0660F771F66
:10045000881F991F4A95D1F708958F929F92AF9266
:10046000BF92CF92DF92EF92FF924B015C01D0DFFF
:100470006B017C01CDDF6C197D098E099F09683EF7
:10048000734081059105B0F321E0821A9108A1081B
:10049000B10888EEC80E83E0D81EE11CF11C81145F
:1004A0009104A104B10431F7FF90EF90DF90CF9059
:1004B000BF90AF909F908F9008958F929F92AF9230
:1004C000BF920F931F93CF93DF93CDB7DEB7A19762
:1004D0000FB6F894DEBF0FBECDBF19A2423008F4AC
:1004E0004AE08E010F5D1F4F842E912CB12CA12C60
:1004F000A501940126D4E62FB901CA01EA303CF5E2
:10050000E05DD801EE938D01232B242B252B81F761
:1005100090E080E0109761F0FD0101900020E9F784
:100520003197AF014A1B5B0BBD0183E292E03CDED9
:10053000A1960FB6F894DEBF0FBECDBFDF91CF916D
:100540001F910F91BF90AF909F908F900895E95C9D
:10055000D8CF42E050E066E172E083E292E024CE40
:10056000CF92DF92EF92FF92CF93DF936C01092E2F
:10057000000CEE08FF0897FF1AC06DE283E292E0DC
:10058000B1DEEC0166277727CB016C197D098E0956
:100590009F094AE092DFC80FD91FDBDF8C0F9D1F38
:1005A000DF91CF91FF90EF90DF90CF9008954AE0D8
:1005B000C701B60182DFEC01F0CF1F920F920FB698
:1005C0000F9211240BB60F922F933F934F935F938B
:1005D0006F937F938F939F93AF93BF93EF93FF930B
:1005E00080EC92E05DDEFF91EF91BF91AF919F9122
:1005F0008F917F916F915F914F913F912F910F90CC
:100600000BBE0F900FBE0F901F9018951F920F9268
:100610000FB60F9211240BB60F922F938F939F93C7
:10062000EF93FF93E091D002F091D1028081E091AD
:10063000D602F091D70282FD1DC090818091D9022F
:100640008F5F8F732091DA02821741F0E091D90217
:10065000F0E0E054FD4F958F8093D902FF91EF9128
:100660009F918F912F910F900BBE0F900FBE0F9007
:100670001F9018958081F2CF1F920F920FB60F92A4
:1006800011240BB60F922F933F934F935F936F9369
:100690007F938F939F93AF93BF93EF93FF9383E2E7
:1006A00092E0FEDDFF91EF91BF91AF919F918F910D
:1006B0007F916F915F914F913F912F910F900BBE62
:1006C0000F900FBE0F901F9018951F920F920FB6AC
:1006D0000F9211240BB60F922F938F939F93EF934A
:1006E000FF93E0913302F09134028081E09139026E
:1006F000F0913A0282FD1DC0908180913C028F5F93
:100700008F7320913D02821741F0E0913C02F0E0AE
:10071000ED5DFD4F958F80933C02FF91EF919F918E
:100720008F912F910F900BBE0F900FBE0F901F90C7
:1007300018958081F2CF1F920F920FB60F9211245D
:100740002F933F938F939F93AF93BF9380911B02FF
:1007500090911C02A0911D02B0911E0230911A02CC
:1007600023E0230F2D3758F50196A11DB11D2093CD
:100770001A0280931B0290931C02A0931D02B09357
:100780001E0280911F0290912002A0912102B0913F
:1007900022020196A11DB11D80931F029093200299
:1007A000A0932102B0932202BF91AF919F918F91AC
:1007B0003F912F910F900FBE0F901F90189526E834
:1007C000230F0296A11DB11DD2CFA0ECB2E013966B
:1007D0001C921E92129748EE53E060E070E014966F
:1007E0004D935D936D937C93179788E092E01196FB
:1007F0009C938E932DEC30E01D963C932E931C978A
:100800002CEC30E01F963C932E931E9728EC30E0A2
:1008100051963C932E93509729EC30E053963C939D
:100820002E9352972AEC30E055963C932E93549792
:100830002EEC30E057963C932E93569759961C9287
:1008400059975A961C925A975B961C925B975C96A6
:100850001C925C97E3E2F2E0138212824483558398
:10086000668377839183808385EC90E09587848786
:1008700084EC90E09787868780EC90E0918B808B6A
:1008800081EC90E0938B828B82EC90E0958B848B53
:1008900086EC90E0978B868B118E128E138E148EC1
:1008A000EDE5F3E0B1A7A0A714A611AA1092A20348
:1008B0001092AC0381E182A713A6118210821382E9
:1008C0001282158214821782168211861086138670
:1008D00012861586148617861686118A108A138A40
:1008E000128A158A148A178A168A118E108E138E10
:1008F000128E158E148E178E168E11A210A213A2B0
:1009000012A215A214A217A216A20895CF93DF93E4
:1009100000D0CDB7DEB7789484B5826084BD84B54D
:10092000816084BD85B5826085BD85B5816085BDEA
:1009300080916E00816080936E00109281008091A2
:10094000810082608093810080918100816080932A
:100950008100809180008160809380008091B1004F
:1009600084608093B1008091B00081608093B0007A
:1009700080919100826080939100809191008160CC
:10098000809391008091900081608093900080918D
:10099000A10082608093A1008091A100816080937A
:1009A000A1008091A00081608093A000809121012E
:1009B00082608093210180912101816080932101D7
:1009C0008091200181608093200180917A00846071
:1009D00080937A0080917A00826080937A0080917F
:1009E0007A00816080937A0080917A008068809399
:1009F0007A001092C100E0913302F091340222E0BB
:100A00002083E0912F02F09130021082E0913102B8
:100A1000F09132028FEC808310923B02E09137021A
:100A2000F091380296E09083E0913502F091360221
:100A3000808180618083E0913502F091360280816F
:100A400088608083E0913502F09136028081806871
:100A50008083E0913502F091360280818F7D808322
:100A6000E091D002F091D1022083E091CC02F0918C
:100A7000CD021082E091CE02F091CF028FE380830D
:100A80001092D802E091D402F091D5029083E091C7
:100A9000D202F091D302808180618083E091D20202
:100AA000F091D302808188608083E091D202F0913E
:100AB000D302808180688083E091D202F091D302DA
:100AC00080818F7D80838FEF9FEF9093A103809330
:100AD000A00381E080938E0386E2882E912CA12CC6
:100AE000B12C90E9F92E2AE5E22E30E8D32EA8D0D9
:100AF000A5019401FAD0665D7F4F8F4F9F4FC62EA0
:100B00004AE0DBDC26DD80919F03082E000C990B68
:100B100027DD01E010E0F9828C2D800F8A83EB82C3
:100B2000CE0101960FDB80919F03082E000C990BDC
:100B300017DD6CE271E080E090E08FDC0F5F1F4F0B
:100B40000C30110541F76CE271E080E090E085DC4B
:100B500001E010E08C2D800F90918E03992319F104
:100B6000F9828A831B82CE010196ECDA80919F0381
:100B7000082E000C990BF4DC6CE271E080E090E050
:100B80006CDC0F5F1F4F0C30110521F768EE73E02E
:100B900080E090E062DC80919F03082E000C990BAE
:100BA000DFDC0BDCA4CFD9828A83EB82DCCF8F928F
:100BB0009F92AF92BF92CF92DF92EF92FF92CF932C
:100BC000DF93EC01688179818A819B8161157105D0
:100BD0008105910521F464E279ED8BE597E02DE143
:100BE00033EF41E050E081D049015A019B01AC0153
:100BF000A7EAB1E496D06B017C01ACEEB4EFA5019D
:100C000094019BD0C60ED71EE81EF91EF7FE06C043
:100C100081E0C81AD108E10880E8F80AC882D982C0
:100C2000EA82FB82C701B6019F77DF91CF91FF90E7
:100C3000EF90DF90CF90BF90AF909F908F900895EE
:100C40008F929F92AF92BF92CF92DF92EF92FF92DC
:100C50006091000270910102809102029091030262
:100C6000611571058105910521F464E279ED8BE54B
:100C700097E02DE133EF41E050E037D049015A01D0
:100C80009B01AC01A7EAB1E44CD06B017C01ACEE56
:100C9000B4EFA501940151D0C60ED71EE81EF91E6F
:100CA000F7FE06C081E0C81AD108E10880E8F80A1A
:100CB000C0920002D0920102E0920202F09203027E
:100CC000C701B6019F77FF90EF90DF90CF90BF9064
:100CD000AF909F908F9008956093000270930102EF
:100CE00080930202909303020895052E97FB16F459
:100CF00000940FD057FD05D024D007FC02D046F455
:100D000008C050954095309521953F4F4F4F5F4F0C
:100D1000089590958095709561957F4F8F4F9F4F67
:100D2000089531D0A59F900DB49F900DA49F800D84
:100D3000911D11240895B7FFF4CFF3DF821B930BAD
:100D40000895A1E21A2EAA1BBB1BFD010DC0AA1F0C
:100D5000BB1FEE1FFF1FA217B307E407F50720F024
:100D6000A21BB30BE40BF50B661F771F881F991F9F
:100D70001A9469F760957095809590959B01AC01E8
:100D8000BD01CF010895A29FB001B39FC001A39FF1
:100D9000700D811D1124911DB29F700D811D1124B4
:100DA000911D0895EE0FFF1F881F8BBF0790F691CE
:080DB000E02D1994F894FFCF27
:100DB80001000000000000007201D4000101BE0122
:0A0DC8003201100124010D0A0000A1
:00000001FF
